{
  "contractName": "NFTCollection",
  "abi": [
    {
      "inputs": [],
      "stateMutability": "nonpayable",
      "type": "constructor"
    },
    {
      "anonymous": false,
      "inputs": [
        {
          "indexed": true,
          "internalType": "address",
          "name": "owner",
          "type": "address"
        },
        {
          "indexed": true,
          "internalType": "address",
          "name": "approved",
          "type": "address"
        },
        {
          "indexed": true,
          "internalType": "uint256",
          "name": "tokenId",
          "type": "uint256"
        }
      ],
      "name": "Approval",
      "type": "event"
    },
    {
      "anonymous": false,
      "inputs": [
        {
          "indexed": true,
          "internalType": "address",
          "name": "owner",
          "type": "address"
        },
        {
          "indexed": true,
          "internalType": "address",
          "name": "operator",
          "type": "address"
        },
        {
          "indexed": false,
          "internalType": "bool",
          "name": "approved",
          "type": "bool"
        }
      ],
      "name": "ApprovalForAll",
      "type": "event"
    },
    {
      "anonymous": false,
      "inputs": [
        {
          "indexed": true,
          "internalType": "address",
          "name": "from",
          "type": "address"
        },
        {
          "indexed": true,
          "internalType": "address",
          "name": "to",
          "type": "address"
        },
        {
          "indexed": true,
          "internalType": "uint256",
          "name": "tokenId",
          "type": "uint256"
        }
      ],
      "name": "Transfer",
      "type": "event"
    },
    {
      "inputs": [
        {
          "internalType": "address",
          "name": "to",
          "type": "address"
        },
        {
          "internalType": "uint256",
          "name": "tokenId",
          "type": "uint256"
        }
      ],
      "name": "approve",
      "outputs": [],
      "stateMutability": "nonpayable",
      "type": "function"
    },
    {
      "inputs": [
        {
          "internalType": "address",
          "name": "owner",
          "type": "address"
        }
      ],
      "name": "balanceOf",
      "outputs": [
        {
          "internalType": "uint256",
          "name": "",
          "type": "uint256"
        }
      ],
      "stateMutability": "view",
      "type": "function",
      "constant": true
    },
    {
      "inputs": [
        {
          "internalType": "uint256",
          "name": "tokenId",
          "type": "uint256"
        }
      ],
      "name": "getApproved",
      "outputs": [
        {
          "internalType": "address",
          "name": "",
          "type": "address"
        }
      ],
      "stateMutability": "view",
      "type": "function",
      "constant": true
    },
    {
      "inputs": [
        {
          "internalType": "address",
          "name": "owner",
          "type": "address"
        },
        {
          "internalType": "address",
          "name": "operator",
          "type": "address"
        }
      ],
      "name": "isApprovedForAll",
      "outputs": [
        {
          "internalType": "bool",
          "name": "",
          "type": "bool"
        }
      ],
      "stateMutability": "view",
      "type": "function",
      "constant": true
    },
    {
      "inputs": [],
      "name": "name",
      "outputs": [
        {
          "internalType": "string",
          "name": "",
          "type": "string"
        }
      ],
      "stateMutability": "view",
      "type": "function",
      "constant": true
    },
    {
      "inputs": [
        {
          "internalType": "uint256",
          "name": "tokenId",
          "type": "uint256"
        }
      ],
      "name": "ownerOf",
      "outputs": [
        {
          "internalType": "address",
          "name": "",
          "type": "address"
        }
      ],
      "stateMutability": "view",
      "type": "function",
      "constant": true
    },
    {
      "inputs": [
        {
          "internalType": "address",
          "name": "from",
          "type": "address"
        },
        {
          "internalType": "address",
          "name": "to",
          "type": "address"
        },
        {
          "internalType": "uint256",
          "name": "tokenId",
          "type": "uint256"
        }
      ],
      "name": "safeTransferFrom",
      "outputs": [],
      "stateMutability": "nonpayable",
      "type": "function"
    },
    {
      "inputs": [
        {
          "internalType": "address",
          "name": "from",
          "type": "address"
        },
        {
          "internalType": "address",
          "name": "to",
          "type": "address"
        },
        {
          "internalType": "uint256",
          "name": "tokenId",
          "type": "uint256"
        },
        {
          "internalType": "bytes",
          "name": "_data",
          "type": "bytes"
        }
      ],
      "name": "safeTransferFrom",
      "outputs": [],
      "stateMutability": "nonpayable",
      "type": "function"
    },
    {
      "inputs": [
        {
          "internalType": "address",
          "name": "operator",
          "type": "address"
        },
        {
          "internalType": "bool",
          "name": "approved",
          "type": "bool"
        }
      ],
      "name": "setApprovalForAll",
      "outputs": [],
      "stateMutability": "nonpayable",
      "type": "function"
    },
    {
      "inputs": [],
      "name": "symbol",
      "outputs": [
        {
          "internalType": "string",
          "name": "",
          "type": "string"
        }
      ],
      "stateMutability": "view",
      "type": "function",
      "constant": true
    },
    {
      "inputs": [
        {
          "internalType": "uint256",
          "name": "index",
          "type": "uint256"
        }
      ],
      "name": "tokenByIndex",
      "outputs": [
        {
          "internalType": "uint256",
          "name": "",
          "type": "uint256"
        }
      ],
      "stateMutability": "view",
      "type": "function",
      "constant": true
    },
    {
      "inputs": [
        {
          "internalType": "address",
          "name": "owner",
          "type": "address"
        },
        {
          "internalType": "uint256",
          "name": "index",
          "type": "uint256"
        }
      ],
      "name": "tokenOfOwnerByIndex",
      "outputs": [
        {
          "internalType": "uint256",
          "name": "",
          "type": "uint256"
        }
      ],
      "stateMutability": "view",
      "type": "function",
      "constant": true
    },
    {
      "inputs": [
        {
          "internalType": "uint256",
          "name": "",
          "type": "uint256"
        }
      ],
      "name": "tokenURIs",
      "outputs": [
        {
          "internalType": "string",
          "name": "",
          "type": "string"
        }
      ],
      "stateMutability": "view",
      "type": "function",
      "constant": true
    },
    {
      "inputs": [],
      "name": "totalSupply",
      "outputs": [
        {
          "internalType": "uint256",
          "name": "",
          "type": "uint256"
        }
      ],
      "stateMutability": "view",
      "type": "function",
      "constant": true
    },
    {
      "inputs": [
        {
          "internalType": "address",
          "name": "from",
          "type": "address"
        },
        {
          "internalType": "address",
          "name": "to",
          "type": "address"
        },
        {
          "internalType": "uint256",
          "name": "tokenId",
          "type": "uint256"
        }
      ],
      "name": "transferFrom",
      "outputs": [],
      "stateMutability": "nonpayable",
      "type": "function"
    },
    {
      "inputs": [
        {
          "internalType": "bytes4",
          "name": "interfaceId",
          "type": "bytes4"
        }
      ],
      "name": "supportsInterface",
      "outputs": [
        {
          "internalType": "bool",
          "name": "",
          "type": "bool"
        }
      ],
      "stateMutability": "view",
      "type": "function",
      "constant": true
    },
    {
      "inputs": [
        {
          "internalType": "uint256",
          "name": "tokenId",
          "type": "uint256"
        }
      ],
      "name": "tokenURI",
      "outputs": [
        {
          "internalType": "string",
          "name": "",
          "type": "string"
        }
      ],
      "stateMutability": "view",
      "type": "function",
      "constant": true
    },
    {
      "inputs": [
        {
          "internalType": "string",
          "name": "_tokenURI",
          "type": "string"
        }
      ],
      "name": "safeMint",
      "outputs": [],
      "stateMutability": "nonpayable",
      "type": "function"
    },
    {
      "inputs": [
        {
          "internalType": "address",
          "name": "_address",
          "type": "address"
        },
        {
          "internalType": "uint256",
          "name": "_id",
          "type": "uint256"
        }
      ],
      "name": "setTrack",
      "outputs": [
        {
          "internalType": "bool",
          "name": "",
          "type": "bool"
        }
      ],
      "stateMutability": "nonpayable",
      "type": "function"
    },
    {
      "inputs": [
        {
          "internalType": "uint256",
          "name": "_id",
          "type": "uint256"
        }
      ],
      "name": "getTrack",
      "outputs": [
        {
          "internalType": "address[]",
          "name": "",
          "type": "address[]"
        }
      ],
      "stateMutability": "view",
      "type": "function",
      "constant": true
    }
  ],
  "bytecode": "0x60806040523480156200001157600080fd5b506040518060400160405280601681526020017f4d696e692055746f70696120436f6c6c656374696f6e000000000000000000008152506040518060400160405280600881526020017f4d555420636f6c6c000000000000000000000000000000000000000000000000815250816000908051906020019062000096929190620000b8565b508060019080519060200190620000af929190620000b8565b505050620001cd565b828054620000c69062000197565b90600052602060002090601f016020900481019282620000ea576000855562000136565b82601f106200010557805160ff191683800117855562000136565b8280016001018555821562000136579182015b828111156200013557825182559160200191906001019062000118565b5b50905062000145919062000149565b5090565b5b80821115620001645760008160009055506001016200014a565b5090565b7f4e487b7100000000000000000000000000000000000000000000000000000000600052602260045260246000fd5b60006002820490506001821680620001b057607f821691505b60208210811415620001c757620001c662000168565b5b50919050565b61337980620001dd6000396000f3fe608060405234801561001057600080fd5b506004361061012c5760003560e01c80636352211e116100ad578063a22cb46511610071578063a22cb4651461037b578063af3585fe14610397578063b88d4fde146103c7578063c87b56dd146103e3578063e985e9c5146104135761012c565b80636352211e146102b1578063695850fb146102e15780636c8b703f146102fd57806370a082311461032d57806395d89b411461035d5761012c565b806323b872dd116100f457806323b872dd146101e95780632f745c591461020557806342842e0e146102355780634f6ccce714610251578063629058ca146102815761012c565b806301ffc9a71461013157806306fdde0314610161578063081812fc1461017f578063095ea7b3146101af57806318160ddd146101cb575b600080fd5b61014b6004803603810190610146919061205a565b610443565b60405161015891906120a2565b60405180910390f35b610169610455565b6040516101769190612156565b60405180910390f35b610199600480360381019061019491906121ae565b6104e7565b6040516101a6919061221c565b60405180910390f35b6101c960048036038101906101c49190612263565b61056c565b005b6101d3610684565b6040516101e091906122b2565b60405180910390f35b61020360048036038101906101fe91906122cd565b610691565b005b61021f600480360381019061021a9190612263565b6106f1565b60405161022c91906122b2565b60405180910390f35b61024f600480360381019061024a91906122cd565b610796565b005b61026b600480360381019061026691906121ae565b6107b6565b60405161027891906122b2565b60405180910390f35b61029b600480360381019061029691906121ae565b610827565b6040516102a891906123de565b60405180910390f35b6102cb60048036038101906102c691906121ae565b6108cd565b6040516102d8919061221c565b60405180910390f35b6102fb60048036038101906102f69190612535565b61097f565b005b610317600480360381019061031291906121ae565b610aa9565b6040516103249190612156565b60405180910390f35b6103476004803603810190610342919061257e565b610b55565b60405161035491906122b2565b60405180910390f35b610365610c0d565b6040516103729190612156565b60405180910390f35b610395600480360381019061039091906125d7565b610c9f565b005b6103b160048036038101906103ac9190612263565b610cb5565b6040516103be91906120a2565b60405180910390f35b6103e160048036038101906103dc91906126b8565b610d35565b005b6103fd60048036038101906103f891906121ae565b610d97565b60405161040a9190612156565b60405180910390f35b61042d6004803603810190610428919061273b565b610e84565b60405161043a91906120a2565b60405180910390f35b600061044e82610f18565b9050919050565b606060008054610464906127aa565b80601f0160208091040260200160405190810160405280929190818152602001828054610490906127aa565b80156104dd5780601f106104b2576101008083540402835291602001916104dd565b820191906000526020600020905b8154815290600101906020018083116104c057829003601f168201915b5050505050905090565b60006104f282610f92565b610531576040517f08c379a00000000000000000000000000000000000000000000000000000000081526004016105289061284e565b60405180910390fd5b6004600083815260200190815260200160002060009054906101000a900473ffffffffffffffffffffffffffffffffffffffff169050919050565b6000610577826108cd565b90508073ffffffffffffffffffffffffffffffffffffffff168373ffffffffffffffffffffffffffffffffffffffff1614156105e8576040517f08c379a00000000000000000000000000000000000000000000000000000000081526004016105df906128e0565b60405180910390fd5b8073ffffffffffffffffffffffffffffffffffffffff16610607610ffe565b73ffffffffffffffffffffffffffffffffffffffff161480610636575061063581610630610ffe565b610e84565b5b610675576040517f08c379a000000000000000000000000000000000000000000000000000000000815260040161066c90612972565b60405180910390fd5b61067f8383611006565b505050565b6000600880549050905090565b6106a261069c610ffe565b826110bf565b6106e1576040517f08c379a00000000000000000000000000000000000000000000000000000000081526004016106d890612a04565b60405180910390fd5b6106ec83838361119d565b505050565b60006106fc83610b55565b821061073d576040517f08c379a000000000000000000000000000000000000000000000000000000000815260040161073490612a96565b60405180910390fd5b600660008473ffffffffffffffffffffffffffffffffffffffff1673ffffffffffffffffffffffffffffffffffffffff168152602001908152602001600020600083815260200190815260200160002054905092915050565b6107b183838360405180602001604052806000815250610d35565b505050565b60006107c0610684565b8210610801576040517f08c379a00000000000000000000000000000000000000000000000000000000081526004016107f890612b28565b60405180910390fd5b6008828154811061081557610814612b48565b5b90600052602060002001549050919050565b606080600d60008481526020019081526020016000208054806020026020016040519081016040528092919081815260200182805480156108bd57602002820191906000526020600020905b8160009054906101000a900473ffffffffffffffffffffffffffffffffffffffff1673ffffffffffffffffffffffffffffffffffffffff1681526020019060010190808311610873575b5050505050905080915050919050565b6000806002600084815260200190815260200160002060009054906101000a900473ffffffffffffffffffffffffffffffffffffffff169050600073ffffffffffffffffffffffffffffffffffffffff168173ffffffffffffffffffffffffffffffffffffffff161415610976576040517f08c379a000000000000000000000000000000000000000000000000000000000815260040161096d90612be9565b60405180910390fd5b80915050919050565b600b8160405161098f9190612c45565b908152602001604051809103902060009054906101000a900460ff16156109eb576040517f08c379a00000000000000000000000000000000000000000000000000000000081526004016109e290612ca8565b60405180910390fd5b600a81908060018154018082558091505060019003906000526020600020016000909190919091509080519060200190610a26929190611f4b565b506000600a80549050905081600c60008381526020019081526020016000209080519060200190610a58929190611f4b565b50610a633382610cb5565b50610a6e3382611404565b6001600b83604051610a809190612c45565b908152602001604051809103902060006101000a81548160ff0219169083151502179055505050565b600a8181548110610ab957600080fd5b906000526020600020016000915090508054610ad4906127aa565b80601f0160208091040260200160405190810160405280929190818152602001828054610b00906127aa565b8015610b4d5780601f10610b2257610100808354040283529160200191610b4d565b820191906000526020600020905b815481529060010190602001808311610b3057829003601f168201915b505050505081565b60008073ffffffffffffffffffffffffffffffffffffffff168273ffffffffffffffffffffffffffffffffffffffff161415610bc6576040517f08c379a0000000000000000000000000000000000000000000000000000000008152600401610bbd90612d3a565b60405180910390fd5b600360008373ffffffffffffffffffffffffffffffffffffffff1673ffffffffffffffffffffffffffffffffffffffff168152602001908152602001600020549050919050565b606060018054610c1c906127aa565b80601f0160208091040260200160405190810160405280929190818152602001828054610c48906127aa565b8015610c955780601f10610c6a57610100808354040283529160200191610c95565b820191906000526020600020905b815481529060010190602001808311610c7857829003601f168201915b5050505050905090565b610cb1610caa610ffe565b8383611422565b5050565b6000600d6000838152602001908152602001600020839080600181540180825580915050600190039060005260206000200160009091909190916101000a81548173ffffffffffffffffffffffffffffffffffffffff021916908373ffffffffffffffffffffffffffffffffffffffff1602179055506001905092915050565b610d46610d40610ffe565b836110bf565b610d85576040517f08c379a0000000000000000000000000000000000000000000000000000000008152600401610d7c90612a04565b60405180910390fd5b610d918484848461158f565b50505050565b6060610da282610f92565b610de1576040517f08c379a0000000000000000000000000000000000000000000000000000000008152600401610dd890612dcc565b60405180910390fd5b600c60008381526020019081526020016000208054610dff906127aa565b80601f0160208091040260200160405190810160405280929190818152602001828054610e2b906127aa565b8015610e785780601f10610e4d57610100808354040283529160200191610e78565b820191906000526020600020905b815481529060010190602001808311610e5b57829003601f168201915b50505050509050919050565b6000600560008473ffffffffffffffffffffffffffffffffffffffff1673ffffffffffffffffffffffffffffffffffffffff16815260200190815260200160002060008373ffffffffffffffffffffffffffffffffffffffff1673ffffffffffffffffffffffffffffffffffffffff16815260200190815260200160002060009054906101000a900460ff16905092915050565b60007f780e9d63000000000000000000000000000000000000000000000000000000007bffffffffffffffffffffffffffffffffffffffffffffffffffffffff1916827bffffffffffffffffffffffffffffffffffffffffffffffffffffffff19161480610f8b5750610f8a826115eb565b5b9050919050565b60008073ffffffffffffffffffffffffffffffffffffffff166002600084815260200190815260200160002060009054906101000a900473ffffffffffffffffffffffffffffffffffffffff1673ffffffffffffffffffffffffffffffffffffffff1614159050919050565b600033905090565b816004600083815260200190815260200160002060006101000a81548173ffffffffffffffffffffffffffffffffffffffff021916908373ffffffffffffffffffffffffffffffffffffffff160217905550808273ffffffffffffffffffffffffffffffffffffffff16611079836108cd565b73ffffffffffffffffffffffffffffffffffffffff167f8c5be1e5ebec7d5bd14f71427d1e84f3dd0314c0f7b2291e5b200ac8c7c3b92560405160405180910390a45050565b60006110ca82610f92565b611109576040517f08c379a000000000000000000000000000000000000000000000000000000000815260040161110090612e5e565b60405180910390fd5b6000611114836108cd565b90508073ffffffffffffffffffffffffffffffffffffffff168473ffffffffffffffffffffffffffffffffffffffff16148061118357508373ffffffffffffffffffffffffffffffffffffffff1661116b846104e7565b73ffffffffffffffffffffffffffffffffffffffff16145b8061119457506111938185610e84565b5b91505092915050565b8273ffffffffffffffffffffffffffffffffffffffff166111bd826108cd565b73ffffffffffffffffffffffffffffffffffffffff1614611213576040517f08c379a000000000000000000000000000000000000000000000000000000000815260040161120a90612ef0565b60405180910390fd5b600073ffffffffffffffffffffffffffffffffffffffff168273ffffffffffffffffffffffffffffffffffffffff161415611283576040517f08c379a000000000000000000000000000000000000000000000000000000000815260040161127a90612f82565b60405180910390fd5b61128e8383836116cd565b611299600082611006565b6001600360008573ffffffffffffffffffffffffffffffffffffffff1673ffffffffffffffffffffffffffffffffffffffff16815260200190815260200160002060008282546112e99190612fd1565b925050819055506001600360008473ffffffffffffffffffffffffffffffffffffffff1673ffffffffffffffffffffffffffffffffffffffff16815260200190815260200160002060008282546113409190613005565b92505081905550816002600083815260200190815260200160002060006101000a81548173ffffffffffffffffffffffffffffffffffffffff021916908373ffffffffffffffffffffffffffffffffffffffff160217905550808273ffffffffffffffffffffffffffffffffffffffff168473ffffffffffffffffffffffffffffffffffffffff167fddf252ad1be2c89b69c2b068fc378daa952ba7f163c4a11628f55a4df523b3ef60405160405180910390a46113ff8383836116dd565b505050565b61141e8282604051806020016040528060008152506116e2565b5050565b8173ffffffffffffffffffffffffffffffffffffffff168373ffffffffffffffffffffffffffffffffffffffff161415611491576040517f08c379a0000000000000000000000000000000000000000000000000000000008152600401611488906130a7565b60405180910390fd5b80600560008573ffffffffffffffffffffffffffffffffffffffff1673ffffffffffffffffffffffffffffffffffffffff16815260200190815260200160002060008473ffffffffffffffffffffffffffffffffffffffff1673ffffffffffffffffffffffffffffffffffffffff16815260200190815260200160002060006101000a81548160ff0219169083151502179055508173ffffffffffffffffffffffffffffffffffffffff168373ffffffffffffffffffffffffffffffffffffffff167f17307eab39ab6107e8899845ad3d59bd9653f200f220920489ca2b5937696c318360405161158291906120a2565b60405180910390a3505050565b61159a84848461119d565b6115a68484848461173d565b6115e5576040517f08c379a00000000000000000000000000000000000000000000000000000000081526004016115dc90613139565b60405180910390fd5b50505050565b60007f80ac58cd000000000000000000000000000000000000000000000000000000007bffffffffffffffffffffffffffffffffffffffffffffffffffffffff1916827bffffffffffffffffffffffffffffffffffffffffffffffffffffffff191614806116b657507f5b5e139f000000000000000000000000000000000000000000000000000000007bffffffffffffffffffffffffffffffffffffffffffffffffffffffff1916827bffffffffffffffffffffffffffffffffffffffffffffffffffffffff1916145b806116c657506116c5826118c5565b5b9050919050565b6116d883838361192f565b505050565b505050565b6116ec8383611a43565b6116f9600084848461173d565b611738576040517f08c379a000000000000000000000000000000000000000000000000000000000815260040161172f90613139565b60405180910390fd5b505050565b600061175e8473ffffffffffffffffffffffffffffffffffffffff16611c1d565b156118b8578373ffffffffffffffffffffffffffffffffffffffff1663150b7a02611787610ffe565b8786866040518563ffffffff1660e01b81526004016117a994939291906131ae565b6020604051808303816000875af19250505080156117e557506040513d601f19601f820116820180604052508101906117e2919061320f565b60015b611868573d8060008114611815576040519150601f19603f3d011682016040523d82523d6000602084013e61181a565b606091505b50600081511415611860576040517f08c379a000000000000000000000000000000000000000000000000000000000815260040161185790613139565b60405180910390fd5b805181602001fd5b63150b7a0260e01b7bffffffffffffffffffffffffffffffffffffffffffffffffffffffff1916817bffffffffffffffffffffffffffffffffffffffffffffffffffffffff1916149150506118bd565b600190505b949350505050565b60007f01ffc9a7000000000000000000000000000000000000000000000000000000007bffffffffffffffffffffffffffffffffffffffffffffffffffffffff1916827bffffffffffffffffffffffffffffffffffffffffffffffffffffffff1916149050919050565b61193a838383611c40565b600073ffffffffffffffffffffffffffffffffffffffff168373ffffffffffffffffffffffffffffffffffffffff16141561197d5761197881611c45565b6119bc565b8173ffffffffffffffffffffffffffffffffffffffff168373ffffffffffffffffffffffffffffffffffffffff16146119bb576119ba8382611c8e565b5b5b600073ffffffffffffffffffffffffffffffffffffffff168273ffffffffffffffffffffffffffffffffffffffff1614156119ff576119fa81611dfb565b611a3e565b8273ffffffffffffffffffffffffffffffffffffffff168273ffffffffffffffffffffffffffffffffffffffff1614611a3d57611a3c8282611ecc565b5b5b505050565b600073ffffffffffffffffffffffffffffffffffffffff168273ffffffffffffffffffffffffffffffffffffffff161415611ab3576040517f08c379a0000000000000000000000000000000000000000000000000000000008152600401611aaa90613288565b60405180910390fd5b611abc81610f92565b15611afc576040517f08c379a0000000000000000000000000000000000000000000000000000000008152600401611af3906132f4565b60405180910390fd5b611b08600083836116cd565b6001600360008473ffffffffffffffffffffffffffffffffffffffff1673ffffffffffffffffffffffffffffffffffffffff1681526020019081526020016000206000828254611b589190613005565b92505081905550816002600083815260200190815260200160002060006101000a81548173ffffffffffffffffffffffffffffffffffffffff021916908373ffffffffffffffffffffffffffffffffffffffff160217905550808273ffffffffffffffffffffffffffffffffffffffff16600073ffffffffffffffffffffffffffffffffffffffff167fddf252ad1be2c89b69c2b068fc378daa952ba7f163c4a11628f55a4df523b3ef60405160405180910390a4611c19600083836116dd565b5050565b6000808273ffffffffffffffffffffffffffffffffffffffff163b119050919050565b505050565b6008805490506009600083815260200190815260200160002081905550600881908060018154018082558091505060019003906000526020600020016000909190919091505550565b60006001611c9b84610b55565b611ca59190612fd1565b9050600060076000848152602001908152602001600020549050818114611d8a576000600660008673ffffffffffffffffffffffffffffffffffffffff1673ffffffffffffffffffffffffffffffffffffffff168152602001908152602001600020600084815260200190815260200160002054905080600660008773ffffffffffffffffffffffffffffffffffffffff1673ffffffffffffffffffffffffffffffffffffffff168152602001908152602001600020600084815260200190815260200160002081905550816007600083815260200190815260200160002081905550505b6007600084815260200190815260200160002060009055600660008573ffffffffffffffffffffffffffffffffffffffff1673ffffffffffffffffffffffffffffffffffffffff16815260200190815260200160002060008381526020019081526020016000206000905550505050565b60006001600880549050611e0f9190612fd1565b9050600060096000848152602001908152602001600020549050600060088381548110611e3f57611e3e612b48565b5b906000526020600020015490508060088381548110611e6157611e60612b48565b5b906000526020600020018190555081600960008381526020019081526020016000208190555060096000858152602001908152602001600020600090556008805480611eb057611eaf613314565b5b6001900381819060005260206000200160009055905550505050565b6000611ed783610b55565b905081600660008573ffffffffffffffffffffffffffffffffffffffff1673ffffffffffffffffffffffffffffffffffffffff168152602001908152602001600020600083815260200190815260200160002081905550806007600084815260200190815260200160002081905550505050565b828054611f57906127aa565b90600052602060002090601f016020900481019282611f795760008555611fc0565b82601f10611f9257805160ff1916838001178555611fc0565b82800160010185558215611fc0579182015b82811115611fbf578251825591602001919060010190611fa4565b5b509050611fcd9190611fd1565b5090565b5b80821115611fea576000816000905550600101611fd2565b5090565b6000604051905090565b600080fd5b600080fd5b60007fffffffff0000000000000000000000000000000000000000000000000000000082169050919050565b61203781612002565b811461204257600080fd5b50565b6000813590506120548161202e565b92915050565b6000602082840312156120705761206f611ff8565b5b600061207e84828501612045565b91505092915050565b60008115159050919050565b61209c81612087565b82525050565b60006020820190506120b76000830184612093565b92915050565b600081519050919050565b600082825260208201905092915050565b60005b838110156120f75780820151818401526020810190506120dc565b83811115612106576000848401525b50505050565b6000601f19601f8301169050919050565b6000612128826120bd565b61213281856120c8565b93506121428185602086016120d9565b61214b8161210c565b840191505092915050565b60006020820190508181036000830152612170818461211d565b905092915050565b6000819050919050565b61218b81612178565b811461219657600080fd5b50565b6000813590506121a881612182565b92915050565b6000602082840312156121c4576121c3611ff8565b5b60006121d284828501612199565b91505092915050565b600073ffffffffffffffffffffffffffffffffffffffff82169050919050565b6000612206826121db565b9050919050565b612216816121fb565b82525050565b6000602082019050612231600083018461220d565b92915050565b612240816121fb565b811461224b57600080fd5b50565b60008135905061225d81612237565b92915050565b6000806040838503121561227a57612279611ff8565b5b60006122888582860161224e565b925050602061229985828601612199565b9150509250929050565b6122ac81612178565b82525050565b60006020820190506122c760008301846122a3565b92915050565b6000806000606084860312156122e6576122e5611ff8565b5b60006122f48682870161224e565b93505060206123058682870161224e565b925050604061231686828701612199565b9150509250925092565b600081519050919050565b600082825260208201905092915050565b6000819050602082019050919050565b612355816121fb565b82525050565b6000612367838361234c565b60208301905092915050565b6000602082019050919050565b600061238b82612320565b612395818561232b565b93506123a08361233c565b8060005b838110156123d15781516123b8888261235b565b97506123c383612373565b9250506001810190506123a4565b5085935050505092915050565b600060208201905081810360008301526123f88184612380565b905092915050565b600080fd5b600080fd5b7f4e487b7100000000000000000000000000000000000000000000000000000000600052604160045260246000fd5b6124428261210c565b810181811067ffffffffffffffff821117156124615761246061240a565b5b80604052505050565b6000612474611fee565b90506124808282612439565b919050565b600067ffffffffffffffff8211156124a05761249f61240a565b5b6124a98261210c565b9050602081019050919050565b82818337600083830152505050565b60006124d86124d384612485565b61246a565b9050828152602081018484840111156124f4576124f3612405565b5b6124ff8482856124b6565b509392505050565b600082601f83011261251c5761251b612400565b5b813561252c8482602086016124c5565b91505092915050565b60006020828403121561254b5761254a611ff8565b5b600082013567ffffffffffffffff81111561256957612568611ffd565b5b61257584828501612507565b91505092915050565b60006020828403121561259457612593611ff8565b5b60006125a28482850161224e565b91505092915050565b6125b481612087565b81146125bf57600080fd5b50565b6000813590506125d1816125ab565b92915050565b600080604083850312156125ee576125ed611ff8565b5b60006125fc8582860161224e565b925050602061260d858286016125c2565b9150509250929050565b600067ffffffffffffffff8211156126325761263161240a565b5b61263b8261210c565b9050602081019050919050565b600061265b61265684612617565b61246a565b90508281526020810184848401111561267757612676612405565b5b6126828482856124b6565b509392505050565b600082601f83011261269f5761269e612400565b5b81356126af848260208601612648565b91505092915050565b600080600080608085870312156126d2576126d1611ff8565b5b60006126e08782880161224e565b94505060206126f18782880161224e565b935050604061270287828801612199565b925050606085013567ffffffffffffffff81111561272357612722611ffd565b5b61272f8782880161268a565b91505092959194509250565b6000806040838503121561275257612751611ff8565b5b60006127608582860161224e565b92505060206127718582860161224e565b9150509250929050565b7f4e487b7100000000000000000000000000000000000000000000000000000000600052602260045260246000fd5b600060028204905060018216806127c257607f821691505b602082108114156127d6576127d561277b565b5b50919050565b7f4552433732313a20617070726f76656420717565727920666f72206e6f6e657860008201527f697374656e7420746f6b656e0000000000000000000000000000000000000000602082015250565b6000612838602c836120c8565b9150612843826127dc565b604082019050919050565b600060208201905081810360008301526128678161282b565b9050919050565b7f4552433732313a20617070726f76616c20746f2063757272656e74206f776e6560008201527f7200000000000000000000000000000000000000000000000000000000000000602082015250565b60006128ca6021836120c8565b91506128d58261286e565b604082019050919050565b600060208201905081810360008301526128f9816128bd565b9050919050565b7f4552433732313a20617070726f76652063616c6c6572206973206e6f74206f7760008201527f6e6572206e6f7220617070726f76656420666f7220616c6c0000000000000000602082015250565b600061295c6038836120c8565b915061296782612900565b604082019050919050565b6000602082019050818103600083015261298b8161294f565b9050919050565b7f4552433732313a207472616e736665722063616c6c6572206973206e6f74206f60008201527f776e6572206e6f7220617070726f766564000000000000000000000000000000602082015250565b60006129ee6031836120c8565b91506129f982612992565b604082019050919050565b60006020820190508181036000830152612a1d816129e1565b9050919050565b7f455243373231456e756d657261626c653a206f776e657220696e646578206f7560008201527f74206f6620626f756e6473000000000000000000000000000000000000000000602082015250565b6000612a80602b836120c8565b9150612a8b82612a24565b604082019050919050565b60006020820190508181036000830152612aaf81612a73565b9050919050565b7f455243373231456e756d657261626c653a20676c6f62616c20696e646578206f60008201527f7574206f6620626f756e64730000000000000000000000000000000000000000602082015250565b6000612b12602c836120c8565b9150612b1d82612ab6565b604082019050919050565b60006020820190508181036000830152612b4181612b05565b9050919050565b7f4e487b7100000000000000000000000000000000000000000000000000000000600052603260045260246000fd5b7f4552433732313a206f776e657220717565727920666f72206e6f6e657869737460008201527f656e7420746f6b656e0000000000000000000000000000000000000000000000602082015250565b6000612bd36029836120c8565b9150612bde82612b77565b604082019050919050565b60006020820190508181036000830152612c0281612bc6565b9050919050565b600081905092915050565b6000612c1f826120bd565b612c298185612c09565b9350612c398185602086016120d9565b80840191505092915050565b6000612c518284612c14565b915081905092915050565b7f54686520746f6b656e205552492073686f756c6420626520756e697175650000600082015250565b6000612c92601e836120c8565b9150612c9d82612c5c565b602082019050919050565b60006020820190508181036000830152612cc181612c85565b9050919050565b7f4552433732313a2062616c616e636520717565727920666f7220746865207a6560008201527f726f206164647265737300000000000000000000000000000000000000000000602082015250565b6000612d24602a836120c8565b9150612d2f82612cc8565b604082019050919050565b60006020820190508181036000830152612d5381612d17565b9050919050565b7f4552433732314d657461646174613a2055524920717565727920666f72206e6f60008201527f6e6578697374656e7420746f6b656e0000000000000000000000000000000000602082015250565b6000612db6602f836120c8565b9150612dc182612d5a565b604082019050919050565b60006020820190508181036000830152612de581612da9565b9050919050565b7f4552433732313a206f70657261746f7220717565727920666f72206e6f6e657860008201527f697374656e7420746f6b656e0000000000000000000000000000000000000000602082015250565b6000612e48602c836120c8565b9150612e5382612dec565b604082019050919050565b60006020820190508181036000830152612e7781612e3b565b9050919050565b7f4552433732313a207472616e736665722066726f6d20696e636f72726563742060008201527f6f776e6572000000000000000000000000000000000000000000000000000000602082015250565b6000612eda6025836120c8565b9150612ee582612e7e565b604082019050919050565b60006020820190508181036000830152612f0981612ecd565b9050919050565b7f4552433732313a207472616e7366657220746f20746865207a65726f2061646460008201527f7265737300000000000000000000000000000000000000000000000000000000602082015250565b6000612f6c6024836120c8565b9150612f7782612f10565b604082019050919050565b60006020820190508181036000830152612f9b81612f5f565b9050919050565b7f4e487b7100000000000000000000000000000000000000000000000000000000600052601160045260246000fd5b6000612fdc82612178565b9150612fe783612178565b925082821015612ffa57612ff9612fa2565b5b828203905092915050565b600061301082612178565b915061301b83612178565b9250827fffffffffffffffffffffffffffffffffffffffffffffffffffffffffffffffff038211156130505761304f612fa2565b5b828201905092915050565b7f4552433732313a20617070726f766520746f2063616c6c657200000000000000600082015250565b60006130916019836120c8565b915061309c8261305b565b602082019050919050565b600060208201905081810360008301526130c081613084565b9050919050565b7f4552433732313a207472616e7366657220746f206e6f6e20455243373231526560008201527f63656976657220696d706c656d656e7465720000000000000000000000000000602082015250565b60006131236032836120c8565b915061312e826130c7565b604082019050919050565b6000602082019050818103600083015261315281613116565b9050919050565b600081519050919050565b600082825260208201905092915050565b600061318082613159565b61318a8185613164565b935061319a8185602086016120d9565b6131a38161210c565b840191505092915050565b60006080820190506131c3600083018761220d565b6131d0602083018661220d565b6131dd60408301856122a3565b81810360608301526131ef8184613175565b905095945050505050565b6000815190506132098161202e565b92915050565b60006020828403121561322557613224611ff8565b5b6000613233848285016131fa565b91505092915050565b7f4552433732313a206d696e7420746f20746865207a65726f2061646472657373600082015250565b60006132726020836120c8565b915061327d8261323c565b602082019050919050565b600060208201905081810360008301526132a181613265565b9050919050565b7f4552433732313a20746f6b656e20616c7265616479206d696e74656400000000600082015250565b60006132de601c836120c8565b91506132e9826132a8565b602082019050919050565b6000602082019050818103600083015261330d816132d1565b9050919050565b7f4e487b7100000000000000000000000000000000000000000000000000000000600052603160045260246000fdfea2646970667358221220f26475297d1c0a08acef02efc96dbbd8c8d8c7ba75ba1c5f575b6c417af767b164736f6c634300080c0033",
  "immutableReferences": {},
  "source": "// SPDX-License-Identifier: MIT\npragma solidity ^0.8.0;\n\nimport \"../client/node_modules/@openzeppelin/contracts/token/ERC721/ERC721.sol\";\nimport \"../client/node_modules/@openzeppelin/contracts/token/ERC721/extensions/ERC721Enumerable.sol\";\n\ncontract NFTCollection is ERC721, ERC721Enumerable {\n  string[] public tokenURIs;\n  mapping(string => bool) _tokenURIExists;\n  mapping(uint => string) _tokenIdToTokenURI;\n  mapping(uint => address[]) _itemTrack;\n\n  constructor() \n    ERC721(\"Mini Utopia Collection\", \"MUT coll\") \n  {\n  }\n\n  function _beforeTokenTransfer(address from, address to, uint256 tokenId) internal override(ERC721, ERC721Enumerable) {\n    super._beforeTokenTransfer(from, to, tokenId);\n  }\n\n  function supportsInterface(bytes4 interfaceId) public view override(ERC721, ERC721Enumerable) returns (bool) {\n    return super.supportsInterface(interfaceId);\n  }\n\n  function tokenURI(uint256 tokenId) public override view returns (string memory) {\n    require(_exists(tokenId), 'ERC721Metadata: URI query for nonexistent token');\n    return _tokenIdToTokenURI[tokenId];\n  }\n\n  function safeMint(string memory _tokenURI) public {\n    require(!_tokenURIExists[_tokenURI], 'The token URI should be unique');\n    tokenURIs.push(_tokenURI);    \n    uint _id = tokenURIs.length;\n    _tokenIdToTokenURI[_id] = _tokenURI;\n    setTrack(msg.sender, _id);\n    _safeMint(msg.sender, _id);\n    _tokenURIExists[_tokenURI] = true;\n  }\n\n    function setTrack(address _address, uint _id) public returns(bool){\n        _itemTrack[_id].push(_address);\n        return true;\n    }\n\n    function getTrack(uint _id) public view returns(address[] memory){\n        address[] memory users;\n        users = _itemTrack[_id];\n       return users;\n\n    }\n}",
  "sourcePath": "/workspace/NFTM/contracts/NFTCollection.sol",
  "compiler": {
    "name": "solc",
    "version": "0.8.12+commit.f00d7308.Emscripten.clang"
  },
  "schemaVersion": "3.4.5",
  "updatedAt": "2022-02-28T02:11:41.219Z",
  "networkType": "ethereum",
  "devdoc": {
    "kind": "dev",
    "methods": {
      "approve(address,uint256)": {
        "details": "See {IERC721-approve}."
      },
      "balanceOf(address)": {
        "details": "See {IERC721-balanceOf}."
      },
      "getApproved(uint256)": {
        "details": "See {IERC721-getApproved}."
      },
      "isApprovedForAll(address,address)": {
        "details": "See {IERC721-isApprovedForAll}."
      },
      "name()": {
        "details": "See {IERC721Metadata-name}."
      },
      "ownerOf(uint256)": {
        "details": "See {IERC721-ownerOf}."
      },
      "safeTransferFrom(address,address,uint256)": {
        "details": "See {IERC721-safeTransferFrom}."
      },
      "safeTransferFrom(address,address,uint256,bytes)": {
        "details": "See {IERC721-safeTransferFrom}."
      },
      "setApprovalForAll(address,bool)": {
        "details": "See {IERC721-setApprovalForAll}."
      },
      "symbol()": {
        "details": "See {IERC721Metadata-symbol}."
      },
      "tokenByIndex(uint256)": {
        "details": "See {IERC721Enumerable-tokenByIndex}."
      },
      "tokenOfOwnerByIndex(address,uint256)": {
        "details": "See {IERC721Enumerable-tokenOfOwnerByIndex}."
      },
      "tokenURI(uint256)": {
        "details": "See {IERC721Metadata-tokenURI}."
      },
      "totalSupply()": {
        "details": "See {IERC721Enumerable-totalSupply}."
      },
      "transferFrom(address,address,uint256)": {
        "details": "See {IERC721-transferFrom}."
      }
    },
    "version": 1
  },
  "userdoc": {
    "kind": "user",
    "methods": {},
    "version": 1
  }
}