{
  "contractName": "NFTMarketplace",
  "abi": [
    {
      "inputs": [
        {
          "internalType": "address",
          "name": "_nftCollection",
          "type": "address"
        }
      ],
      "stateMutability": "nonpayable",
      "type": "constructor"
    },
    {
      "anonymous": false,
      "inputs": [
        {
          "indexed": false,
          "internalType": "address",
          "name": "user",
          "type": "address"
        },
        {
          "indexed": false,
          "internalType": "uint256",
          "name": "amount",
          "type": "uint256"
        }
      ],
      "name": "ClaimFunds",
      "type": "event"
    },
    {
      "anonymous": false,
      "inputs": [
        {
          "indexed": false,
          "internalType": "uint256",
          "name": "offerId",
          "type": "uint256"
        },
        {
          "indexed": false,
          "internalType": "uint256",
          "name": "id",
          "type": "uint256"
        },
        {
          "indexed": false,
          "internalType": "address",
          "name": "user",
          "type": "address"
        },
        {
          "indexed": false,
          "internalType": "uint256",
          "name": "price",
          "type": "uint256"
        },
        {
          "indexed": false,
          "internalType": "bool",
          "name": "fulfilled",
          "type": "bool"
        },
        {
          "indexed": false,
          "internalType": "bool",
          "name": "cancelled",
          "type": "bool"
        }
      ],
      "name": "Offer",
      "type": "event"
    },
    {
      "anonymous": false,
      "inputs": [
        {
          "indexed": false,
          "internalType": "uint256",
          "name": "offerId",
          "type": "uint256"
        },
        {
          "indexed": false,
          "internalType": "uint256",
          "name": "id",
          "type": "uint256"
        },
        {
          "indexed": false,
          "internalType": "address",
          "name": "owner",
          "type": "address"
        }
      ],
      "name": "OfferCancelled",
      "type": "event"
    },
    {
      "anonymous": false,
      "inputs": [
        {
          "indexed": false,
          "internalType": "uint256",
          "name": "offerId",
          "type": "uint256"
        },
        {
          "indexed": false,
          "internalType": "uint256",
          "name": "id",
          "type": "uint256"
        },
        {
          "indexed": false,
          "internalType": "address",
          "name": "newOwner",
          "type": "address"
        }
      ],
      "name": "OfferFilled",
      "type": "event"
    },
    {
      "stateMutability": "nonpayable",
      "type": "fallback"
    },
    {
      "inputs": [],
      "name": "offerCount",
      "outputs": [
        {
          "internalType": "uint256",
          "name": "",
          "type": "uint256"
        }
      ],
      "stateMutability": "view",
      "type": "function",
      "constant": true
    },
    {
      "inputs": [
        {
          "internalType": "uint256",
          "name": "",
          "type": "uint256"
        }
      ],
      "name": "offers",
      "outputs": [
        {
          "internalType": "uint256",
          "name": "offerId",
          "type": "uint256"
        },
        {
          "internalType": "uint256",
          "name": "id",
          "type": "uint256"
        },
        {
          "internalType": "address",
          "name": "user",
          "type": "address"
        },
        {
          "internalType": "uint256",
          "name": "price",
          "type": "uint256"
        },
        {
          "internalType": "bool",
          "name": "fulfilled",
          "type": "bool"
        },
        {
          "internalType": "bool",
          "name": "cancelled",
          "type": "bool"
        }
      ],
      "stateMutability": "view",
      "type": "function",
      "constant": true
    },
    {
      "inputs": [
        {
          "internalType": "uint256",
          "name": "",
          "type": "uint256"
        }
      ],
      "name": "sellers",
      "outputs": [
        {
          "internalType": "address",
          "name": "userAddres",
          "type": "address"
        },
        {
          "internalType": "uint256",
          "name": "balance",
          "type": "uint256"
        }
      ],
      "stateMutability": "view",
      "type": "function",
      "constant": true
    },
    {
      "inputs": [
        {
          "internalType": "address",
          "name": "",
          "type": "address"
        }
      ],
      "name": "userFunds",
      "outputs": [
        {
          "internalType": "uint256",
          "name": "",
          "type": "uint256"
        }
      ],
      "stateMutability": "view",
      "type": "function",
      "constant": true
    },
    {
      "inputs": [
        {
          "internalType": "uint256",
          "name": "_id",
          "type": "uint256"
        },
        {
          "internalType": "uint256",
          "name": "_price",
          "type": "uint256"
        }
      ],
      "name": "makeOffer",
      "outputs": [],
      "stateMutability": "nonpayable",
      "type": "function"
    },
    {
      "inputs": [
        {
          "internalType": "uint256",
          "name": "_offerId",
          "type": "uint256"
        }
      ],
      "name": "fillOffer",
      "outputs": [],
      "stateMutability": "payable",
      "type": "function",
      "payable": true
    },
    {
      "inputs": [
        {
          "internalType": "uint256",
          "name": "_offerId",
          "type": "uint256"
        }
      ],
      "name": "cancelOffer",
      "outputs": [],
      "stateMutability": "nonpayable",
      "type": "function"
    },
    {
      "inputs": [],
      "name": "claimFunds",
      "outputs": [],
      "stateMutability": "nonpayable",
      "type": "function"
    },
    {
      "inputs": [],
      "name": "getSellers",
      "outputs": [
        {
          "internalType": "address[]",
          "name": "",
          "type": "address[]"
        },
        {
          "internalType": "uint256[]",
          "name": "",
          "type": "uint256[]"
        }
      ],
      "stateMutability": "view",
      "type": "function",
      "constant": true
    }
  ],
  "bytecode": "0x60806040523480156200001157600080fd5b5060405162001ba838038062001ba88339818101604052810190620000379190620000e9565b80600560006101000a81548173ffffffffffffffffffffffffffffffffffffffff021916908373ffffffffffffffffffffffffffffffffffffffff160217905550506200011b565b600080fd5b600073ffffffffffffffffffffffffffffffffffffffff82169050919050565b6000620000b18262000084565b9050919050565b620000c381620000a4565b8114620000cf57600080fd5b50565b600081519050620000e381620000b8565b92915050565b6000602082840312156200010257620001016200007f565b5b60006200011284828501620000d2565b91505092915050565b611a7d806200012b6000396000f3fe60806040526004361061008a5760003560e01c806385dba8611161005957806385dba8611461015a5780638a72ea6a14610176578063ac307773146101b8578063cee26ed5146101cf578063ef706adf1461020d5761008b565b806305b7cdd31461009d5780631115c24d146100c65780637ee454cb146100f15780638387c6e11461011d5761008b565b5b34801561009757600080fd5b50600080fd5b3480156100a957600080fd5b506100c460048036038101906100bf9190610fbe565b610236565b005b3480156100d257600080fd5b506100db61042f565b6040516100e8919061100d565b60405180910390f35b3480156100fd57600080fd5b50610106610435565b6040516101149291906111d6565b60405180910390f35b34801561012957600080fd5b50610144600480360381019061013f9190611239565b6105bb565b604051610151919061100d565b60405180910390f35b610174600480360381019061016f9190611266565b6105d3565b005b34801561018257600080fd5b5061019d60048036038101906101989190611266565b610a6e565b6040516101af969594939291906112bd565b60405180910390f35b3480156101c457600080fd5b506101cd610ae4565b005b3480156101db57600080fd5b506101f660048036038101906101f19190611266565b610cab565b60405161020492919061131e565b60405180910390f35b34801561021957600080fd5b50610234600480360381019061022f9190611266565b610cef565b005b600560009054906101000a900473ffffffffffffffffffffffffffffffffffffffff1673ffffffffffffffffffffffffffffffffffffffff166323b872dd3330856040518463ffffffff1660e01b815260040161029593929190611347565b600060405180830381600087803b1580156102af57600080fd5b505af11580156102c3573d6000803e3d6000fd5b50505050600160008154809291906102da906113ad565b91905055506040518060c0016040528060015481526020018381526020013373ffffffffffffffffffffffffffffffffffffffff16815260200182815260200160001515815260200160001515815250600260006001548152602001908152602001600020600082015181600001556020820151816001015560408201518160020160006101000a81548173ffffffffffffffffffffffffffffffffffffffff021916908373ffffffffffffffffffffffffffffffffffffffff1602179055506060820151816003015560808201518160040160006101000a81548160ff02191690831515021790555060a08201518160040160016101000a81548160ff0219169083151502179055509050507f93e711896d4ef527d199d7e101922e20f918cbb248a0fb0977c52fda24aa1f1d600154833384600080604051610423969594939291906112bd565b60405180910390a15050565b60015481565b6060806000805467ffffffffffffffff811115610455576104546113f6565b5b6040519080825280602002602001820160405280156104835781602001602082028036833780820191505090505b5090506000805467ffffffffffffffff8111156104a3576104a26113f6565b5b6040519080825280602002602001820160405280156104d15781602001602082028036833780820191505090505b50905060005b6000548110156105ae576004600082815260200190815260200160002060000160009054906101000a900473ffffffffffffffffffffffffffffffffffffffff1683828151811061052b5761052a611425565b5b602002602001019073ffffffffffffffffffffffffffffffffffffffff16908173ffffffffffffffffffffffffffffffffffffffff1681525050600460008281526020019081526020016000206001015482828151811061058f5761058e611425565b5b60200260200101818152505080806105a6906113ad565b9150506104d7565b5081819350935050509091565b60036020528060005260406000206000915090505481565b600060026000838152602001908152602001600020905081816000015414610630576040517f08c379a0000000000000000000000000000000000000000000000000000000008152600401610627906114b1565b60405180910390fd5b3373ffffffffffffffffffffffffffffffffffffffff168160020160009054906101000a900473ffffffffffffffffffffffffffffffffffffffff1673ffffffffffffffffffffffffffffffffffffffff1614156106c3576040517f08c379a00000000000000000000000000000000000000000000000000000000081526004016106ba90611543565b60405180910390fd5b8060040160009054906101000a900460ff1615610715576040517f08c379a000000000000000000000000000000000000000000000000000000000815260040161070c906115d5565b60405180910390fd5b8060040160019054906101000a900460ff1615610767576040517f08c379a000000000000000000000000000000000000000000000000000000000815260040161075e90611667565b60405180910390fd5b806003015434146107ad576040517f08c379a00000000000000000000000000000000000000000000000000000000081526004016107a4906116f9565b60405180910390fd5b600560009054906101000a900473ffffffffffffffffffffffffffffffffffffffff1673ffffffffffffffffffffffffffffffffffffffff166323b872dd303384600101546040518463ffffffff1660e01b815260040161081093929190611347565b600060405180830381600087803b15801561082a57600080fd5b505af115801561083e573d6000803e3d6000fd5b5050505060018160040160006101000a81548160ff02191690831515021790555034600360008360020160009054906101000a900473ffffffffffffffffffffffffffffffffffffffff1673ffffffffffffffffffffffffffffffffffffffff1673ffffffffffffffffffffffffffffffffffffffff16815260200190815260200160002060008282546108d29190611719565b925050819055508060020160009054906101000a900473ffffffffffffffffffffffffffffffffffffffff16600460008054815260200190815260200160002060000160006101000a81548173ffffffffffffffffffffffffffffffffffffffff021916908373ffffffffffffffffffffffffffffffffffffffff16021790555034600460008054815260200190815260200160002060010181905550600560009054906101000a900473ffffffffffffffffffffffffffffffffffffffff1673ffffffffffffffffffffffffffffffffffffffff1663af3585fe3383600101546040518363ffffffff1660e01b81526004016109d092919061131e565b6020604051808303816000875af11580156109ef573d6000803e3d6000fd5b505050506040513d601f19601f82011682018060405250810190610a13919061179b565b50600080815480929190610a26906113ad565b91905055507fd9157c065213ada613694e84b1e27fe2efd62d85c6b82bd6c842a4999491e72a82826001015433604051610a62939291906117c8565b60405180910390a15050565b60026020528060005260406000206000915090508060000154908060010154908060020160009054906101000a900473ffffffffffffffffffffffffffffffffffffffff16908060030154908060040160009054906101000a900460ff16908060040160019054906101000a900460ff16905086565b6000600360003373ffffffffffffffffffffffffffffffffffffffff1673ffffffffffffffffffffffffffffffffffffffff1681526020019081526020016000205411610b66576040517f08c379a0000000000000000000000000000000000000000000000000000000008152600401610b5d90611871565b60405180910390fd5b3373ffffffffffffffffffffffffffffffffffffffff166108fc600360003373ffffffffffffffffffffffffffffffffffffffff1673ffffffffffffffffffffffffffffffffffffffff168152602001908152602001600020549081150290604051600060405180830381858888f19350505050158015610beb573d6000803e3d6000fd5b507f4f0554190111f93f8c2ccef2cc41473f187d7f29ff5a5c308ca41f9dfe4e989a33600360003373ffffffffffffffffffffffffffffffffffffffff1673ffffffffffffffffffffffffffffffffffffffff16815260200190815260200160002054604051610c5c92919061131e565b60405180910390a16000600360003373ffffffffffffffffffffffffffffffffffffffff1673ffffffffffffffffffffffffffffffffffffffff16815260200190815260200160002081905550565b60046020528060005260406000206000915090508060000160009054906101000a900473ffffffffffffffffffffffffffffffffffffffff16908060010154905082565b600060026000838152602001908152602001600020905081816000015414610d4c576040517f08c379a0000000000000000000000000000000000000000000000000000000008152600401610d43906114b1565b60405180910390fd5b3373ffffffffffffffffffffffffffffffffffffffff168160020160009054906101000a900473ffffffffffffffffffffffffffffffffffffffff1673ffffffffffffffffffffffffffffffffffffffff1614610dde576040517f08c379a0000000000000000000000000000000000000000000000000000000008152600401610dd590611903565b60405180910390fd5b600015158160040160009054906101000a900460ff16151514610e36576040517f08c379a0000000000000000000000000000000000000000000000000000000008152600401610e2d90611995565b60405180910390fd5b600015158160040160019054906101000a900460ff16151514610e8e576040517f08c379a0000000000000000000000000000000000000000000000000000000008152600401610e8590611a27565b60405180910390fd5b600560009054906101000a900473ffffffffffffffffffffffffffffffffffffffff1673ffffffffffffffffffffffffffffffffffffffff166323b872dd303384600101546040518463ffffffff1660e01b8152600401610ef193929190611347565b600060405180830381600087803b158015610f0b57600080fd5b505af1158015610f1f573d6000803e3d6000fd5b5050505060018160040160016101000a81548160ff0219169083151502179055507f5b166b4d0498ff8c4719999cb6154c5d197e6f020f9fbfcf9d347f84576cfab782826001015433604051610f77939291906117c8565b60405180910390a15050565b600080fd5b6000819050919050565b610f9b81610f88565b8114610fa657600080fd5b50565b600081359050610fb881610f92565b92915050565b60008060408385031215610fd557610fd4610f83565b5b6000610fe385828601610fa9565b9250506020610ff485828601610fa9565b9150509250929050565b61100781610f88565b82525050565b60006020820190506110226000830184610ffe565b92915050565b600081519050919050565b600082825260208201905092915050565b6000819050602082019050919050565b600073ffffffffffffffffffffffffffffffffffffffff82169050919050565b600061107f82611054565b9050919050565b61108f81611074565b82525050565b60006110a18383611086565b60208301905092915050565b6000602082019050919050565b60006110c582611028565b6110cf8185611033565b93506110da83611044565b8060005b8381101561110b5781516110f28882611095565b97506110fd836110ad565b9250506001810190506110de565b5085935050505092915050565b600081519050919050565b600082825260208201905092915050565b6000819050602082019050919050565b61114d81610f88565b82525050565b600061115f8383611144565b60208301905092915050565b6000602082019050919050565b600061118382611118565b61118d8185611123565b935061119883611134565b8060005b838110156111c95781516111b08882611153565b97506111bb8361116b565b92505060018101905061119c565b5085935050505092915050565b600060408201905081810360008301526111f081856110ba565b905081810360208301526112048184611178565b90509392505050565b61121681611074565b811461122157600080fd5b50565b6000813590506112338161120d565b92915050565b60006020828403121561124f5761124e610f83565b5b600061125d84828501611224565b91505092915050565b60006020828403121561127c5761127b610f83565b5b600061128a84828501610fa9565b91505092915050565b61129c81611074565b82525050565b60008115159050919050565b6112b7816112a2565b82525050565b600060c0820190506112d26000830189610ffe565b6112df6020830188610ffe565b6112ec6040830187611293565b6112f96060830186610ffe565b61130660808301856112ae565b61131360a08301846112ae565b979650505050505050565b60006040820190506113336000830185611293565b6113406020830184610ffe565b9392505050565b600060608201905061135c6000830186611293565b6113696020830185611293565b6113766040830184610ffe565b949350505050565b7f4e487b7100000000000000000000000000000000000000000000000000000000600052601160045260246000fd5b60006113b882610f88565b91507fffffffffffffffffffffffffffffffffffffffffffffffffffffffffffffffff8214156113eb576113ea61137e565b5b600182019050919050565b7f4e487b7100000000000000000000000000000000000000000000000000000000600052604160045260246000fd5b7f4e487b7100000000000000000000000000000000000000000000000000000000600052603260045260246000fd5b600082825260208201905092915050565b7f546865206f66666572206d757374206578697374000000000000000000000000600082015250565b600061149b601483611454565b91506114a682611465565b602082019050919050565b600060208201905081810360008301526114ca8161148e565b9050919050565b7f546865206f776e6572206f6620746865206f666665722063616e6e6f7420666960008201527f6c6c206974000000000000000000000000000000000000000000000000000000602082015250565b600061152d602583611454565b9150611538826114d1565b604082019050919050565b6000602082019050818103600083015261155c81611520565b9050919050565b7f416e206f666665722063616e6e6f742062652066756c66696c6c65642074776960008201527f6365000000000000000000000000000000000000000000000000000000000000602082015250565b60006115bf602283611454565b91506115ca82611563565b604082019050919050565b600060208201905081810360008301526115ee816115b2565b9050919050565b7f412063616e63656c6c6564206f666665722063616e6e6f742062652066756c6660008201527f696c6c6564000000000000000000000000000000000000000000000000000000602082015250565b6000611651602583611454565b915061165c826115f5565b604082019050919050565b6000602082019050818103600083015261168081611644565b9050919050565b7f5468652045544820616d6f756e742073686f756c64206d61746368207769746860008201527f20746865204e4654205072696365000000000000000000000000000000000000602082015250565b60006116e3602e83611454565b91506116ee82611687565b604082019050919050565b60006020820190508181036000830152611712816116d6565b9050919050565b600061172482610f88565b915061172f83610f88565b9250827fffffffffffffffffffffffffffffffffffffffffffffffffffffffffffffffff038211156117645761176361137e565b5b828201905092915050565b611778816112a2565b811461178357600080fd5b50565b6000815190506117958161176f565b92915050565b6000602082840312156117b1576117b0610f83565b5b60006117bf84828501611786565b91505092915050565b60006060820190506117dd6000830186610ffe565b6117ea6020830185610ffe565b6117f76040830184611293565b949350505050565b7f54686973207573657220686173206e6f2066756e647320746f20626520636c6160008201527f696d656400000000000000000000000000000000000000000000000000000000602082015250565b600061185b602483611454565b9150611866826117ff565b604082019050919050565b6000602082019050818103600083015261188a8161184e565b9050919050565b7f546865206f666665722063616e206f6e6c792062652063616e63656c6564206260008201527f7920746865206f776e6572000000000000000000000000000000000000000000602082015250565b60006118ed602b83611454565b91506118f882611891565b604082019050919050565b6000602082019050818103600083015261191c816118e0565b9050919050565b7f412066756c66696c6c6564206f666665722063616e6e6f742062652063616e6360008201527f656c6c6564000000000000000000000000000000000000000000000000000000602082015250565b600061197f602583611454565b915061198a82611923565b604082019050919050565b600060208201905081810360008301526119ae81611972565b9050919050565b7f416e206f666665722063616e6e6f742062652063616e63656c6c65642074776960008201527f6365000000000000000000000000000000000000000000000000000000000000602082015250565b6000611a11602283611454565b9150611a1c826119b5565b604082019050919050565b60006020820190508181036000830152611a4081611a04565b905091905056fea2646970667358221220b539a5a70f06e1b797bce456493d2450cd75a5175020f872811c43fb53764d4b64736f6c634300080c0033",
  "immutableReferences": {},
  "source": "// SPDX-License-Identifier: MIT\npragma solidity ^0.8.0;\n\nimport \"./NFTCollection.sol\";\n\ncontract NFTMarketplace {\n  uint count;\n  uint public offerCount;\n  mapping (uint => _Offer) public offers;\n  mapping (address => uint) public userFunds;\n  mapping(uint => Seller) public sellers;\n  NFTCollection nftCollection;\n  \n  struct _Offer {\n    uint offerId;\n    uint id;\n    address user;\n    uint price;\n    bool fulfilled;\n    bool cancelled;\n  }\n\n  struct Seller {\n       address userAddres;\n       uint balance;\n   }\n\n  event Offer(\n    uint offerId,\n    uint id,\n    address user,\n    uint price,\n    bool fulfilled,\n    bool cancelled\n  );\n\n  event OfferFilled(uint offerId, uint id, address newOwner);\n  event OfferCancelled(uint offerId, uint id, address owner);\n  event ClaimFunds(address user, uint amount);\n\n  constructor(address _nftCollection) {\n    nftCollection = NFTCollection(_nftCollection);\n  }\n  \n  function makeOffer(uint _id, uint _price) public {\n    nftCollection.transferFrom(msg.sender, address(this), _id);\n    offerCount ++;\n    offers[offerCount] = _Offer(offerCount, _id, msg.sender, _price, false, false);\n    emit Offer(offerCount, _id, msg.sender, _price, false, false);\n  }\n\n  function fillOffer(uint _offerId) public payable {\n    _Offer storage _offer = offers[_offerId];\n    require(_offer.offerId == _offerId, 'The offer must exist');\n    require(_offer.user != msg.sender, 'The owner of the offer cannot fill it');\n    require(!_offer.fulfilled, 'An offer cannot be fulfilled twice');\n    require(!_offer.cancelled, 'A cancelled offer cannot be fulfilled');\n    require(msg.value == _offer.price, 'The ETH amount should match with the NFT Price');\n    nftCollection.transferFrom(address(this), msg.sender, _offer.id);\n    _offer.fulfilled = true;\n    userFunds[_offer.user] += msg.value;\n    sellers[count].userAddres = _offer.user;\n    sellers[count].balance = msg.value;\n    nftCollection.setTrack(msg.sender, _offer.id);\n    count++;\n    emit OfferFilled(_offerId, _offer.id, msg.sender);\n  }\n\n  function cancelOffer(uint _offerId) public {\n    _Offer storage _offer = offers[_offerId];\n    require(_offer.offerId == _offerId, 'The offer must exist');\n    require(_offer.user == msg.sender, 'The offer can only be canceled by the owner');\n    require(_offer.fulfilled == false, 'A fulfilled offer cannot be cancelled');\n    require(_offer.cancelled == false, 'An offer cannot be cancelled twice');\n    nftCollection.transferFrom(address(this), msg.sender, _offer.id);\n    _offer.cancelled = true;\n    emit OfferCancelled(_offerId, _offer.id, msg.sender);\n  }\n\n  function claimFunds() public {\n    require(userFunds[msg.sender] > 0, 'This user has no funds to be claimed');\n    payable(msg.sender).transfer(userFunds[msg.sender]);\n    emit ClaimFunds(msg.sender, userFunds[msg.sender]);\n    userFunds[msg.sender] = 0;    \n  }\n\n  function getSellers() public view returns (address[] memory, uint[] memory){\n       address[] memory userAddress = new address[](count);\n       uint[] memory balances = new uint[](count);\n\n       for(uint i = 0; i < count; i++){\n           userAddress[i] = sellers[i].userAddres;\n           balances[i] = sellers[i].balance;\n       }\n       return (userAddress, balances);\n   }\n\n  // Fallback: reverts if Ether is sent to this smart-contract by mistake\n  fallback () external {\n    revert();\n  }\n}",
  "sourcePath": "/workspace/NFTM/contracts/NFTMarketplace.sol",
  "compiler": {
    "name": "solc",
    "version": "0.8.12+commit.f00d7308.Emscripten.clang"
  },
  "schemaVersion": "3.4.5",
  "updatedAt": "2022-02-26T08:26:25.585Z",
  "networkType": "ethereum",
  "devdoc": {
    "kind": "dev",
    "methods": {},
    "version": 1
  },
  "userdoc": {
    "kind": "user",
    "methods": {},
    "version": 1
  }
}